:020000040800F2
:10000000A82700209D900008198E00081B8E00086C
:100010001D8E00081F8E0008218E000800000000C1
:10002000000000000000000000000000238E000817
:10003000258E000800000000278E0008298E000889
:10004000AD900008B1900008B59000082D8E000812
:10005000B9900008BD9000086B8E0008718E0008F2
:10006000C1900008C5900008658E0008C99000087E
:10007000CD900008D1900008318E0008D59000087E
:10008000D9900008DD900008E1900008E590000894
:10009000E9900008ED900008F1900008F590000844
:1000A000F9900008FD9000080191000805910008F2
:1000B000099100080D9100081191000815910008A0
:1000C000199100081D910008219100082591000850
:1000D000378E00083D8E0008299100082D910008F8
:1000E0003191000835910008399100083D910008D0
:1000F000438E0008478E00084B8E0008419100088F
:1001000045910008499100084D910008519100085F
:1001100055910008599100085D910008619100080F
:1001200065910008699100084F8E00086D910008E4
:1001300071910008759100087991000840F0200045
:1001400070472DE9F14FB2B001AC91460020069105
:10015000C4E900003C9A0F900DF14A019A461491AF
:100160004A7009E0329823464A4604A900F0B6FFD7
:10017000002800F12181A14499F80010252909D116
:1001800000200022002109900A920B910C920D91FF
:100190000E920FE001AA4FF0FF31484601F032F80D
:1001A000040002D10F9800F0FBBDDBD50124E2E78B
:1001B00041F0010119F8010F2028F9D023280CD0B3
:1001C0002B2804D02D2805D0302809D00BE041F091
:1001D0000201EFE741F00401ECE741F00801E9E733
:1001E00041F01001E6E72A280FD1DAF8002052F892
:1001F000040BCAF800200028119003D5404211904A
:1002000041F0040109F1010914E01192DFF8140B27
:100210000AE0119C844205DA04EB840302EB4302FA
:10022000303A119209F1010999F80020A2F1300346
:100230000A2BEED399F800202E2A03D04FF0FF307E
:10024000109029E019F8010F2A2809D1DAF80020C6
:1002500052F8040BCAF80020109009F101091BE0C4
:100260002D280CBF09F10109002000221092DFF8AF
:10027000B42A0BE040B9109C944205DA04EB8405E3
:1002800003EB4503303B109309F1010999F8003065
:10029000A3F130040A2CEDD3ADF848100FF68820F6
:1002A00099F8001000F0B8FF08B119F8010B8DF8AB
:1002B0004A009DF84A00682805D199F8001068297D
:1002C0000CD1622006E06C2804BF99F800106C295C
:1002D00004D171208DF84A0009F1010922AA08927F
:1002E00019F801BBBBF125012DD01C3900F0268186
:1002F000091F022940F222810E392AD0491F00F03D
:100300004884093900F01A81891E00F0DD84491EF5
:1003100000F08A84491E022940F21081091F00F072
:100320008384491F00F07F80491E00F03284491EFB
:1003300065D0C91E21D0891E00F02B84C91E00F093
:10034000288400F0E0BC0122252109928DF8881054
:100350002AE06C208DF84A00DAF8000050F8042BEF
:10036000CAF80000002A43D11499487800283DD0EB
:100370004FF0FF340FF6B81012E09DF84A006C28D9
:10038000EAD0DAF8000050F8044BCAF800000794ED
:10039000D4B91499487898B14FF0FF340FF6AC10E7
:1003A00000F054FF241A07D1329822AA04A900F0C1
:1003B000FAFC00287FF5E0AE4FF0FF3000F0F0BC13
:1003C0000FF6A4100790EFE7109D002D04D52046EE
:1003D00000F05CFF044607E02A46204600F072FF6A
:1003E000002814BF041B2C460A94DDE70FF67C128C
:1003F000329804A900F05DFD0028D5D5DCE7DAF8D5
:10040000001051F8040BCAF8001020F0000200217F
:1004100021F0FF33CDE9042322AC0794782104A80E
:1004200000F0A7FDC0E71499487820B14FF0FF34E1
:100430000FF63C10B4E79DF84A00622862D06828A5
:1004400019D06A2840D06C2806D071284DD0742865
:100450002DD07A281ED064E0DAF8001051F8040B91
:10046000CAF8001020B94FF0FF340FF61C1097E7C0
:100470000F99016098E7DAF8001051F8040BCAF8F8
:10048000001020B94FF0FF340FF6FC0088E70F99F9
:10049000018089E7DAF8001051F8040BCAF800105F
:1004A0000028E5D14FF0FF340FF6DC0078E7DAF8EA
:1004B000001051F8040BCAF800100028D8D14FF0F2
:1004C000FF340FF6C4006BE7DAF8001051F8040BA4
:1004D000CAF8001020B94FF0FF340FF6AC005FE708
:1004E0000F9AD317C0E900235EE7DAF8001051F83D
:1004F000040BCAF800100028F2D14FF0FF340FF6B9
:1005000088004DE7DAF8001051F8040BCAF8001023
:1005100020B94FF0FF340FF6700041E70F990170DA
:1005200042E7DAF8001051F8040BCAF8001000286E
:100530009ED14FF0FF340FF6500031E7DAF800009B
:10054000C21D9DF84A0022F007024C28CAF800207C
:10055000D2E9000107BF0832CAF8002002F10803FF
:10056000CAF80030CDE90401C80F02D009982D2146
:100570000CE0BDF84810880704D5099822A92B2261
:100580000A5405E0C80705D50998202122AA11546C
:10059000401C099022A909984BF0200301EB000CA4
:1005A000DDE90401CDE92001612BCDF81CC015ACBB
:1005B0000BD01098002848BF062105D404BF4BF08B
:1005C0002000672801D101211091DDE904677B003B
:1005D00043EAD6735A15DB174FF0FF30834208BF4A
:1005E000824214D13F0347EA16573603002F08BF53
:1005F000002E0CD0ABF1610503211A2D0A9118D3FE
:100600000FF60C310322604600F088FECCE6DDE9EF
:1006100004014A00521512F1010F0DD108030BD14C
:10062000ABF1610503211A2D0A911BD30FF6E821C6
:10063000E8E70FF6D821E5E7DDE904016A4600F0B6
:1006400079FECDE904014BF02000612811D1079813
:1006500030220270811C0791BBF1610F0CBF782121
:10066000582102E00FF6AC21CCE741700998801CBC
:100670000990DDE9042322F0000033F0004108BFB7
:10068000002802D10026002546E14BF02008B8F1F1
:10069000610F40F093801098002847BF21210391FB
:1006A000401C0390039EDDE92001761C00220023FC
:1006B000DDE9044500F076FE38BF85F0004500987E
:1006C0008DF85420001F002E00900DF1550732DDEB
:1006D000204629460022002300F07EFE2BD21C2259
:1006E00000F094FE04460D4600F02EFFF61F002E8B
:1006F000804609DD00F044FF02460B4620462946AD
:1007000001F006F804460D46F81D0721B8F1000F68
:100710000CDD491E5EBF08F00F0200F8012D4FEA04
:100720002818F3D502E0002200F8012D491EFAD561
:10073000C71D002ECCDC0DF155003F1A03980DF1BA
:1007400055043E468742C8BF0646002E2FD4BE42FF
:1007500006DA0DF15501885D0828A8BF0F2000DAE0
:100760000020314615AA531800E0761E13F801291F
:10077000491E8242F9D00F2804D10DF15502505C78
:10078000401C5054002904D50098001D15AC761C5F
:100790000090701E0BD421180A783032D3B23A2B55
:1007A000A4BF5A443A3A401E01F80129F4D51099E1
:1007B000002940F1B080701E1090ACE00099DFF885
:1007C0000C2947F29750414391FBF2F20092DDE988
:1007D0002045C2F10702002A25F0004504DD20462D
:1007E000294600F04FFC0BE052420020DFF8E018F1
:1007F00000F048FC02460B462046294600F0FAFF6E
:1008000004460D46B8F1660F06BF009E0A3606265E
:1008100010983618142EC8BF142630208DF85400B6
:100820000020DFF8B018CDE920010DF15507002EAA
:1008300033DD2046294601F001F901460A4607F159
:10084000080C04200A23B2FBF3FE0EEB8E07A2EB8A
:10085000470230320CF8012C0A22BEFBF2F202EB06
:100860008203AEEB43033033401E0CF8023DE9D166
:10087000083E002E0CF10807D9DD084601F0F0F81B
:1008800002460B462046294600F042FFDDE92023C0
:1008900001F0F4F804460D46CBE70DF155003F1A80
:1008A0000DF1550404E00098401E7F1E0090641C6A
:1008B00020783028F7D0B8F1660F02D1009E761C60
:1008C00004E0B8F1650F0CBF012600261098361819
:1008D000B742B8BF7E1E002E1DD4BE4204DAA05D12
:1008E0003428C8BF392700DC30273146601E431842
:1008F00000E0761E13F80159491EBD42F9D0392F88
:1009000002D1625C521C6254002904D5044600984E
:10091000401C761C0090009D00F078FC406A07782F
:10092000DDF8408030B2002802DC01260FF2EC74C2
:100930004BF02000662808BF6D1C16D0672845D1F3
:1009400028B210F1040F47DB404545DA9DF8481006
:100950006D1C080703D430B24045D8BF804628B28A
:10096000B8EB000848BF4FF000080FFA85FB079866
:100970000A99BBF1000F00F3B1804A1C0A923023A0
:100980004354B8F1000F03DC9DF84800010704D57B
:100990000A98411C0A9107990F5418EB0B0FB8BF26
:1009A000C8F100052DB26842454432B20D9095421F
:1009B000B8BF2E46079B0A9836B20B9632462146A0
:1009C000184400F0ABFCAD1B0E95CBE0BBF1610F02
:1009D00017D14FF0700B19E030B2404504DA9DF8A2
:1009E00048100A0758BF8046B8F1010848BF4FF0C9
:1009F0000008BBF1670F14BF4FF0450B4FF0650BBC
:100A000004E0BBF1410F08BF4FF0500B0A98411CA6
:100A10000A91B8F1000F079914F8012B0A5403DC6E
:100A20009DF8481008071AD50A98411C0A91B8F198
:100A3000000F07990F5412DD761E30B28045B8BF03
:100A4000464607980A9B32B22146184400F066FCDD
:100A50000A9836B230180A90A8EB06000D90079855
:100A60000A99014428B2002881F800B003D42B2051
:100A70004870891C04E02D224A700546891C6D428D
:100A800000201FAA0AE02B460A2593FBF5F505EB8B
:100A90008504A3EB440302F8013B401C2DB2002D5A
:100AA000F1DC012806DC4BF02002652A04BF30226D
:100AB00001F8012B00281FAA08D1302001F8010BF2
:100AC00006E0401E135C303301F8013B0028F8DCDF
:100AD000079A0A981044091A0B9143E0084431B26E
:100AE0002AB2914219DA32B2214600F017FC0A9973
:100AF00036B271180A91ABEB0600B8F1000F0D90F9
:100B000003DC9DF84800020704D5079847540B9969
:100B1000491C0B91CDF8388024E0214600F0FEFB03
:100B20000A98761B5844B8F1000F0A9003DC9DF830
:100B300048100A0703D5411C0A9107990F5430B297
:100B40008045B8BF4646079B0A9832B204EB0B01BA
:100B5000184400F0E3FB0A9836B230180A90A8EB6C
:100B600006000D909DF8480000F0140010287FF456
:100B70001BAC099A0A980D9982180B988A1882184A
:100B80000E98119980188842BFF60EAC081A0C9086
:100B90000AE49DF84A00622808D068280ED06A2826
:100BA00014D06C281FD0712810D01CE0DAF8001087
:100BB00051F8040BCAF80010C0B21AE0DAF80010BD
:100BC00051F8040BCAF8001080B212E0DAF8000005
:100BD000C21D22F00702CAF80020D2E90001083243
:100BE000CAF8002006E0DAF8001051F8040BCAF841
:100BF00000100021CDE904019DF8480002075CD5F2
:100C0000DDE90401002908BF002856D04BF020027E
:100C1000782A52D1099922A830234354491C4A1CEE
:100C2000099200F801B048E09DF84A00622808D017
:100C300068280ED06A2814D06C281FD0712810D0D4
:100C40001CE0DAF8001051F8040BCAF8001040B2AA
:100C50001AE0DAF8001051F8040BCAF8001000B2DC
:100C600012E0DAF80000C21D22F00702CAF80020E4
:100C7000D2E900010832CAF8002006E0DAF80010D4
:100C800051F8040BCAF80010C117CDE9040100297E
:100C900002D509982D220CE0BDF84800810704D543
:100CA000099822AA2B21115405E0C00705D50998FF
:100CB000202222A90A54401C099022A9099808441C
:100CC00007905946FFF7ABBB9DF84A106C290BD033
:100CD00001200990DAF8001051F8040BCAF800104E
:100CE0008DF88800FFF760BBDAF8001051F8040BAC
:100CF000CAF80010002216924FF0FF3115901091A3
:100D000015AAFFF775BB01222521BBF1000F09923F
:100D10008DF888103FF448AB022009908DF889B017
:100D2000FFF742BBCBCCCC0C686A6C747A4C0000E9
:100D30007072696E74665F733A2062616420256C1C
:100D40007320617267756D656E7400007072696EF4
:100D500074665F733A206261642025732061726754
:100D6000756D656E7400000000000000000000005A
:100D70007072696E74665F733A20256E20646973C1
:100D8000616C6C6F776564007072696E74663A208E
:100D900062616420256E20617267756D656E7400F6
:100DA00033B0BDE8F08F2DE9FC410E460746756B68
:100DB0007069316A2D1AB0696D1A716A2D1AF0695D
:100DC0006D1AB16A2D1A96F838006D1A41079046CF
:100DD0000FD42020002D8DF800000ADD2C460123C1
:100DE0006A463146384600F079F900285DD1641E24
:100DF000F5D1736942463146384600F06FF9002854
:100E000053D130208DF80000346A002C09DD012315
:100E10006A463146384600F061F9002845D1641E23
:100E2000F5D1B369F2683146384600F057F9002829
:100E30003BD130208DF80000746A002C08DD0123BE
:100E40006A463146384600F049F970BB641EF6D157
:100E5000F168B069F3690A183146384600F03EF986
:100E600018BB30208DF80000B46A002C08DD012387
:100E70006A463146384600F031F9B0B9641EF6D101
:100E800096F8380041070DD52020002D8DF8000080
:100E900008DD01236A463146384600F01FF920B9C3
:100EA0006D1EF6D10020BDE8F6814FF0FF30BDE8A1
:100EB000F6812DE9F8470C46A3B0256B8146924692
:100EC000002D48BF6FF0004500F0ADFE616B40188B
:100ED00001AB0021C3E90011812828BF4FF0FF308A
:100EE00044D288461EE0B54230DB60693018812864
:100EF0000BD30021616303AA21464846FFF753FF45
:100F00005FEA000822D40020606103AB67693246C3
:100F10006946D81900F002FAF71967615AF8040B0C
:100F2000A0B1AD1B002D11DDDAF8001001AA684652
:100F300000F06AF90646002E05D4DAF80000002811
:100F4000D1D1761ECFD54FF0FF380EE0B8F1000FAB
:100F5000484604D103AA2146FFF725FF8046B8F191
:100F6000000F02D1002161616163404624B0BDE8F9
:100F7000F0872DE9FE4C06468B46376958466F28A8
:100F800008BF082205D0FFF7D9F8782814BF0A2235
:100F90001022D6E900013C2504468A46BBF1640FC5
:100FA00018BFBBF1690F04D1002902D564426AEB76
:100FB0004A0ABAF1000F08BF002C0CD1306B50B9AF
:100FC000082A3BD196F83810080737D530213B2541
:100FD00087F83B1032E08DF800B09346204651462A
:100FE0005A46002300F024FE3032D0B26D1E3A285B
:100FF00001950DDA7A55204651465A46002300F0F5
:1010000017FE04465FEA010A08BF002C05D108E07C
:101010009DF800001218513AECE7F1687819814206
:10102000DCD3BBF1080F09D196F83800010705D5CC
:10103000785D302802D06D1E30207855C5F13C0215
:10104000306BB26179198242F16007DA318F821A0E
:101050004FF6EF7001403262318710E000280ED564
:1010600096F8380000F01400102808D1736B7069EE
:10107000316A1B1A5B1A9B1A002BC8BF336203B07C
:10108000BDE8F08C2DE9D04306460F4614464FF0DC
:101090000008DFF8449012E0E00707D542464B46CF
:1010A0003046394600F0EAFC06460F4640464946BF
:1010B00042464B4600F0E2FC641080468946002C14
:1010C000EAD130463946BDE8D0830000A086010051
:1010D0000000F03F84D7974100002440F8B5054652
:1010E0000E4617461C4600205CB117F8011BB0687D
:1010F000A847B06030B1F06A401CF0620020641E66
:10110000F3D1F2BD4FF0FF30F2BD00006E616E0012
:101110004E414E00696E6600494E46003000F0B404
:101120000246106895681318506803EB5004C00716
:1011300048BF4D44A3422DD013F8016B16F00300B5
:1011400004BF13F8010BC01C31090F2907D113F894
:10115000011B0F3103E013F8017B05F8017B401EF2
:10116000F9D10029E6D013F8010BC6F38107032F4C
:1011700008BF13F8017B00EB0720404228440026FB
:10118000B71E8F421EBF10F8017B05F8017B761C4D
:10119000F6D1CFE7F0BC02F10C0070471C48704755
:1011A00070B45368D41801E05B1C491E042B08DAA4
:1011B00000291FBF067804F8016B10F8015B002DB1
:1011C000F2D1536070BC704738B514461D4661B10A
:1011D000FFF7E6FF61686A6B204690476FF00101F8
:1011E000421A02D0521E01D001E003E005E00021C6
:1011F000616032BD6FF0010032BD4FF0FF3032BD93
:10120000DA6B1047024BDFE7014BF9E70148704703
:10121000B41000207C100020C9B202788A421AB1B2
:101220001CBF10F8012FF9E718BF00207047B1F577
:10123000807F02D34FF0FF3070470170012070476C
:101240000078401E8041C043C00F704780B500B990
:1012500006A005490B681BB122220021984701E036
:1012600000F069FD222002BD9C170020636F6E73A1
:10127000747261696E742068616E646C65723A2084
:10128000626164206D6573736167650000F101033D
:10129000810704D010F8011B820781B1FAD10268DE
:1012A000A2F10131914311F0803104BF50F8042FB5
:1012B000F6E709BAB1FA81F100EBD100401CC01A7F
:1012C00070472E00C9B2830706D0521E22D310F8F1
:1012D000013B9942F7D11FE0083A13D302F104020F
:1012E00041EA012141EA014150F8043B121F21BFAC
:1012F0004B40A3F1013C2CEA030C1CF0803FF3D0DF
:10130000C9B2001F0832521E24BF10F8013B91EAF7
:10131000030FF8D818BF0120401E70474AB10000E3
:1013200011F8013B521E00F8013B1CBF11F8013BB4
:10133000F8E7704710B5144600F002F8226010BDBF
:10134000C1F30A5343B14A0012F5001F28D2A3F299
:10135000FE32A1EB0251704750EA410C20D001F05F
:10136000004C31EA0C01B1FA81F204BFB0FA80F30B
:10137000D2180B3AB2F120032CBF00FA03F19140CE
:1013800041EA0C013EBFC2F1200C20FA0CF31943D4
:101390009040524240F2FD33D21A01EB03517047A4
:1013A0000022704741EA030C50EA4C0C52EA0C0C44
:1013B0004FF4001C09D307D01CEB410F9CBF1CEB62
:1013C000430F8B4208BF824270471CEB430FFBD890
:1013D000994208BF9042704741EA030C50EA4C0C16
:1013E00052EA0C0C4FF4001C09D307D01CEB410F40
:1013F0009CBF1CEB430F994208BF904270471CEB07
:10140000410FFBD88B4208BF82427047124254D42E
:1014100040F2FF7C1CEA11530FD0634531D09B187A
:1014200063453CBF01EB0251704701F0004141EAC6
:101430000C510020AFF30080704750EA410320D0E8
:1014400001F0004C91EA0C011CD0B1FA81F30B3B86
:101450009A420DD9D21A994051EA0C01C3F1200CDD
:1014600020FA0CFC61449840531C40F2FF7CD7E703
:10147000914041EA0C01C2F1200C20FA0CF319430F
:1014800090407047B0FA80F31533202BE0D3202A28
:10149000EED3203A203B9A4209D9D21A00FA03F13E
:1014A00041EA0C010020531C40F2FF7CB8E700FA2F
:1014B00002F141EA0C0100207047524240F2FF7CE9
:1014C0001CEA11530DD06345DBD0B2EB030C3CBFDB
:1014D000A1EB025170470CF1010221EA035141F4E2
:1014E000801150EA410CCCD001F0004C352A27DCA9
:1014F00030B481EA0C01B2F1200309DAC2F1200311
:10150000044601FA03F5D0402843D1409C400CE04A
:10151000C3F12002450020FA03F418BF44F001048F
:1015200021FA03F091400C43002174F1004550F181
:10153000000051EB0C01244230BC7FF47BAF7047BC
:101540006146002076E74300C1F30A5340F21E4291
:10155000D31A0CDDCA0283F3070342EA505242F069
:101560000042DA4002EBE17282EAE17070476FEA12
:10157000E17203F2E13008B182F000407047704739
:1015800010F0004160B148BF4042B0FA80F2904094
:10159000D21CC2F5846241EA025202EBD02140051E
:1015A00070477047841A71EB030604D26E40001B2B
:1015B000B141121973414FF4001C1CEB410F34BFB1
:1015C0007CEB430683E00C0DA4EB1356362E00F3A0
:1015D0007C80012E45EAC32341DC43EA525312BF0B
:1015E000D20292025B08240545EAC12141EA50512A
:1015F000D2EBC020994125D407D1B0FA80F610FA79
:1016000006F162D00020203608E0B1FA81F6B14040
:10161000C6F1200220FA02F21143B0404FEAF474FE
:10162000B4EB465434F001064FEA74040AD8D6F5F8
:101630000016760D04F00044F04061FA06F25040C6
:10164000F1404840C00A40EA415021F0004128BF23
:101650005FEA500550F1000044EBD12135E0DB0A90
:1016600045EAC121C90AB6F120050EDD42EA02426F
:10167000120CC5F1200603FA06F6EB4042EA060515
:101680006D42984161F100010DE062FA06F5F24009
:10169000554063FA06FC82EA0C02F3405A406D4260
:1016A000904161EB030111F4801F05D1641E6205B6
:1016B00002D06D004041494121F48011430875F189
:1016C000004350F1000041EB045170BC70471CEB2B
:1016D000410F15D223F0004352EA43060BD04FEAE4
:1016E0004C0CBCEB410F04D80C0D661E342EB7DD3C
:1016F000EBE7801A994150EA410608BF0021E4E770
:1017000008BF1CEB430F28BF6FF00001DDE70000AE
:1017100070B491EA030F4FF000457FF543AF6B4083
:10172000841A71EB030603D2001BB14112197341F5
:101730004FF4001C1CEB410F34BF7CEB430442E030
:101740000C0DA4EB1356352E4FDC45EAC323DB0A00
:1017500045EAC121C912B6F120050DDD63FA05F68F
:10176000EB4086EA0305124218BF45F00105C01898
:1017700051F100010CD213E062FA06F5F240554037
:10178000F3415A40B340F3405A408018594107D3BF
:1017900049085FEA30005FEA350528BF45F00105DA
:1017A00001F58011420875F1004250F1000041EB53
:1017B00004514E0016F5001F70BC38BF7047002062
:1017C000090D090570471CEB410F10D252EA430680
:1017D0000BD0BCEB410F05D80C0DAB43661E342E6D
:1017E000B6DD02E0AB438018594170BC704770BC55
:1017F00070470000F0B540F2FF7581EA030C0CF071
:10180000004C15EA11541DBF15EA1357AC42AF4204
:10181000E5E0BC41C1F31301C3F31303801A9941FE
:1018200043F4801304D2641E0018494180185941C2
:10183000C90241EA5051B1FBF3F603FB1611A2FBBA
:101840000675D7EBC020A94102D2761E80185941F7
:10185000C90241EA5051B1FBF3FE03FB1E11A2FB8A
:101860000E75D7EBC020A94103D2AEF1010E80184E
:101870005941890241EA9051760546EA8E2EB1FB24
:10188000F3F603FB1611A2FB0675D7EB8020A941E6
:1018900002D2761E80185941C90241EA50514EEADF
:1018A000060EB1FBF3F603FB1611A2FB0675D7EB90
:1018B000C020A94102D2761E80185941C90241EACE
:1018C0005051B1FBF3F703FB1711A2FB0735D3EB24
:1018D000C020A94167F100070CBF004247F0010793
:1018E00066F3D5274FEA1E31B80814F5806412DD7F
:1018F000BD0775F1004250EB0E5051EB045111F54C
:10190000801F5CBF41EA0C01F0BD4CF07F6141F0EB
:10191000E0410020F0BDBD076D0840EA0E5041F4E3
:101920008011D4F10104B4F120060ADAC4F12006D2
:101930000200E04001FA06F3E1401843B2401543CB
:101940000EE0342C13DCC6F1200445EA40056D0896
:1019500020FA06F2154321FA06F0A1400D430021BA
:1019600075F1004250F1000051EB0C01F0BD002078
:101970005FEA0C01F0BDCFB992185B41B3FA83F76F
:1019800004BFB2FA82F6BF190B3FB7F120062FBF92
:1019900002FA06F3BB40C7F1200622FA06F638BF6A
:1019A0003343BA401CB1E419641E33E77F4231F07F
:1019B0000041B1FA81F404BFB0FA80F6A4190B3CDF
:1019C000B4F120062FBF00FA06F1A140C4F12006B1
:1019D00020FA06F638BF3143A0403C1B1AE7AC4260
:1019E0001ABF05EA1357AF4212E050EA41061CBF86
:1019F00052EA4306BFE750EA4107304661461CBF42
:101A000041EA0551F0BD52EA430C08BFC143F0BDA5
:101A100000204FF4001616EB410F98BF16EB430F52
:101A200008BF16EB410F24BFC14305E016EB430F7F
:101A30000CBF61464CEA0551F0BD0000400D40F27C
:101A40001E4C40EAC120BCEB115C40F0004003D4C6
:101A50008CF30701C84070476FEAE17070470000DF
:101A600050B1B0FA80F18840C91CC1F58461090504
:101A700001EBD021400570470146704730B540F278
:101A8000FF7C1CEA11541DBF1CEA135564456545D3
:101A90003FE0641981EA030C6FF35F530CF0004CD4
:101AA00043F48013C90241F0004141EA505EC5028F
:101AB0001100A5FB020200284FF00000EEFB012000
:101AC0004FF00001E3FB052118BF42F0010240186E
:101AD00000214941E3FB0E01A4F580640D0302D20D
:101AE00092184041494154F1010470DD450872F1FA
:101AF000004250F1000051EB0451A1F5801102D4D5
:101B000041EA0C0130BD40F2FF7E4CEA0E5100204C
:101B100030BD0CEA1355644518BF654581EA030CD6
:101B20000CF0004C41D050EA410E1CBF52EA430E6B
:101B300002E06146002030BD24422C441BD15FEA04
:101B4000050EF6D0090302BF01460020AEF1140EC7
:101B5000B1FA81F5AEEB050401FA05FE0C35C5F1CD
:101B6000200100FA05F5C8404EEA000E6FF35F53FE
:101B700043F480139CE733F00043B3FA83F504BFCA
:101B8000B2FA82FE75440B3D641BB5F1200E2FBFE7
:101B900002FA0EF3AB40C5F1200E22FA0EFE38BF5A
:101BA00043EA0E03AA40641C7CE750EA410E14BFCE
:101BB00052EA430E6FF000014FF4001515EB430F8E
:101BC0008EBF194615EB410F9DE7B4D830BDD4F157
:101BD0000104B4F120050FDAC4F12005520828BF32
:101BE00042F0010210FA05FE01FA05F57244E2BF67
:101BF000E0402843E1400FE0352C9ADCC5F1200499
:101C000052EA400220FA05F218BF42F0010231FA0E
:101C100005F0A1400A43002172F1004250F100009A
:101C200051EB0C0130BD80B5FFF7B8FA006C02BD76
:101C3000D3BBD9B1B2F5803F5BD2022A1ED98C4604
:101C4000B1FBF2F102FB11C31B0443EA1043B3FBE7
:101C5000F2FC02FB1C3380B240EA0343B3FBF2F018
:101C600002FB103240EA0C4000237047022A05D9DB
:101C70008446B0FBF2F002FB10C270474AB105D1B6
:101C800000F0010249085FEA30007047002200239B
:101C9000704700F053B80B0002000021002070478D
:101CA000F7D3002200237047904271EB030CF2D36C
:101CB00070B5B1FA81F4B3FA83F52C1BA340C4F1DB
:101CC000200532FA05F63343A2405FF00046E640B5
:101CD00002E05B085FEA3202841A71EB030524BF5D
:101CE000204629467641F4D302000B003000002143
:101CF00070BD70B5B1FA81F4B2FA82F5C4F1200476
:101D00006419B4F12006DAD3B2405FF00044F44025
:101D1000002502E052085FEA3303C61A71EB020E97
:101D200024BF3046714664416D41F3D302000B007D
:101D30002000290070BD012000F002B870470000AB
:101D400080B5AFF30080024A11001820ABBEFBE75C
:101D50002600020038B5040001D1012032BD04F193
:101D60008405686808B900F020F800F00DF808B1A3
:101D700000F031F800F02CF8012804D000F00DF844
:101D800020F02A0016E032BD242068602068016837
:101D9000490849000160A06A70472168486820F43A
:101DA000904048602168886870470021297020466B
:101DB00000F08EBF886000F004F8BDE8324000F00B
:101DC00070BB2168086840F0010008602046704739
:101DD000204600F0FFB9204600F000BB38B50346AE
:101DE000D3F88C0020280AD109B1100001D10120BC
:101DF00032BD00F043F8BDE8384000F0FDBB0220E2
:101E000032BD70B5044604F154051346686B2028B2
:101E100032D121B3180022D021652B806B800021A4
:101E2000E96321206863A86AD8B1DFF89823DFF856
:101E30009813C262A86A0163A86ADFF8901341632D
:101E40000021A86A81632668216DA86A06F128022C
:101E500001F09BF828B11021E9632020686301207C
:101E600070BD20684021016200F01EF841F0800141
:101E700000F08DF9F8D170BD022070BD0024DC6641
:101E8000DFF84C031C6884420CD065682C0209D52D
:101E9000186850E8005F044645F0806544E800504B
:101EA0000028F5D118467047226802F1080151E870
:101EB000001F083270472DE9F041054640F60F0C2F
:101EC0002A68D669104616EA0C0F0768936805F170
:101ED0005C0407F0200006F020010DD1002914D089
:101EE00010B9D80040F18E80A169002900F042812C
:101EF0002846BDE8F0410847DFF88CC813EA0C0F0C
:101F000004BFDFF888E817EA0E0F7BD05FEAC678D7
:101F100048BF5FEAC75E07D54FF00108C2F82080CE
:101F2000626B42F001026263B2070AD5DA0708D594
:101F3000D5F800E00222CEF82020626B42F00402C5
:101F4000626372070CD5DA070AD52A684FF0040ECF
:101F5000C2F820E0D4F834E04EF0020EC4F834E0C9
:101F600032070DD5002808BF13EA0C0F08D0D5F8AA
:101F700000C00822CCF82020626B42F008026263A5
:101F8000320509D57F0107D52A684FF4006616622D
:101F9000666B46F020066663626B002A31D031B171
:101FA00008B9D80003D5A16909B128468847606BF4
:101FB00029688A68510602D410F0280F1CD02846E0
:101FC00000F0C5FB28688168480610D500F0E3F8EA
:101FD000606A60B10FF671018163606A01F04EF8CA
:101FE00000280ED0606A816BBDE8F04108472846A2
:101FF000BDE8F04101F038B9284601F035F900207C
:102000006063B7E02069012874D1F10672D5F80643
:1020100070D51021116228688168480632D5616A3E
:102020000868406880B20028EBD022889042E8DA45
:102030006080086801688A061CD4286850E8001F80
:10204000024621F4807100F0A2F8F6D100F094F875
:1020500000F07FFAFAD100F08FF800F094F8FAD18E
:10206000202020630021216100F0A2F8FCD1606AE9
:1020700000F0D0FF0220606121886088091A89B2CF
:10208000284633E0218862886088891A00281CBFAE
:1020900088B200286ED02A46106850E8003F0546F6
:1020A00023F4907345E800300028F5D1136803F15C
:1020B000080050E8006FDFF8CC060833064043E81C
:1020C00000600028F2D12023236320610023A36154
:1020D000106850E8005F034625F0100543E8005003
:1020E0000028F5D10220606189B21046BDE8F041B8
:1020F00001F0BBB8F10209D5580207D54FF48011A1
:1021000011622846BDE8F04101F0B0B8310609D5AA
:10211000380601D4190205D5E16959B32846BDE84E
:10212000F0410847700613D5790611D5286850E8A4
:10213000002F014622F0400200F0E6FAF6D12020FE
:10214000E0620021E1612846BDE8F04101F0C1B83C
:10215000310206D5780004D52846BDE8F04101F0EB
:10216000CBB8F00148BF002F04D52846BDE8F041A8
:1021700001F0C3B8BDE8F081296801F1080353E814
:10218000001F2868704700F1080221F0400142E872
:102190000010002870472A6802F1080151E8001F6A
:1021A000083221F0400142E800100028F3D17047C6
:1021B000286850E8002F014622F0100241E8002074
:1021C00000287047BF270008EF270008F527000800
:1021D00000800040F8B50546DFF8A8082A681368B3
:1021E000A968034028690B4369690343E8690B4305
:1021F0000343136000245168E86821F4405101430F
:102200005160AB69DFF880188A421CBF286A03431B
:102210009668DFF87808DFF878E8DFF87878064025
:102220003343936067A6D36A686A1B0940EA0313C5
:10223000D3627245DFF810094FF4004338D13F688C
:1022400007F00307032F4CD8DFE807F002454248A8
:102250004FF0010CE969B1F5004F4FF6F07740F00F
:102260007F80BCF1010F09D0BCF1020F0AD0BCF194
:10227000040F70D0BCF1080F70D098E001F0C4FBDF
:10228000002814D06A6A696836F81230B0FBF3F09F
:102290004A0802EB4002B2FBF1F0A0F11001B94292
:1022A000EBD20740C0F3420007432868C7607FE0D5
:1022B0008A4216D13F6817F4406723D0B7F5806F84
:1022C00009D0B7F5006F03D0B7F5406F06D008E02E
:1022D0004FF0020C07E04FF0040C04E04FF0080C44
:1022E00001E04FF0100C8A42B4D1BCF1000F09D0CC
:1022F000BCF1020F0AD0BCF1040F15D0BCF1080FDD
:1023000015D054E001F078FB002851D0696A36F806
:102310001120B0FBF2F66A6802EB42018E4246D30E
:102320001303B34205D242E001F01CFBECE7184670
:10233000ECE75008002110EB062051EB166100235A
:10234000FFF776FCA0F54076DFF80079BE422ED28A
:102350002968C8602CE001F005FB91E7184691E779
:10236000BCF1010F09D0BCF1020F09D0BCF1040F80
:1023700018D0BCF1080F18D019E001F045FBB8B136
:102380006A6A36F812306968B0FBF3F000EB51006E
:10239000B0FBF1F0A0F11001B94208D22A6880B276
:1023A000D06005E001F0DEFAE9E71846E8E701242D
:1023B00005F168000122002142800280C1600161B4
:1023C0002046F2BD010002000400060008000A00D9
:1023D0000C001000200040008000000190F8282030
:1023E000110706D502685368816B23F400430B4341
:1023F000536090F82820D10706D502685368C16A57
:1024000023F400330B43536090F82820910706D53E
:1024100002685368016B23F480330B43536090F8D8
:1024200028104A0706D502685368416B23F48023BD
:102430000B43536090F82820D10606D502689368B4
:10244000C16B23F480530B43936090F828108A06E5
:1024500006D503689A68016C22F400520A439A6018
:1024600090F82820510610D502685368416C23F477
:1024700080130B435360436CB3F5801F05D1536841
:10248000816C23F4C0030B43536090F8282011069D
:1024900006D502685168C06C21F4002101435160E7
:1024A0007047F8B5044604F184050020E8606FF039
:1024B0007E4701F043FB216806460868020716D5EF
:1024C0000097334600224FF40011204600F049F8EF
:1024D00068B1206850E8001F024621F08001FFF734
:1024E00056FEF6D120206860002129701EE0206889
:1024F000026851071CD50097334600224FF4800133
:10250000204600F02EF898B1206850E8001F0246DF
:1025100021F49071FFF73BFEF6D100F013F800F0C4
:1025200018F8FAD12020A86000222A700320F2BDFA
:10253000202169602020A8600021E166002020673A
:102540002970F2BD216801F1080353E8001F2068DB
:102550007047490800F10802490042E800100028CD
:1025600070472DE9F041069C05460E4690461F46F1
:102570002968C8693040B0420CBF012100214145A3
:1025800038D114F1010FF3D001F0D8FAC01B844206
:1025900000D314B90320BDE8F0812A681168480708
:1025A000E6D5802E18BF402EE2D01146C86901073B
:1025B00004D41046C1690805DAD50DE0296808225F
:1025C0000A62284600F0C3F805F184000821C160C2
:1025D000002202700120DEE710464FF40061016224
:1025E000284600F0B4F805F184002022C2600021E2
:1025F0000170CFE70020CEE770B503460020996553
:10260000FF2403F15C010A804A8088619868B0F574
:10261000805F04D1186980B940F2FF140DE018B949
:10262000186950B17F200BE0B0F1805F07D11869C5
:1026300010B97F258D8004E03F248C8001E00020CC
:10264000888000244C63222008631C6804F108067B
:1026500056E8004F186800F1080544F0010445E809
:1026600000400028F1D18868B0F1005F28D1888946
:10267000824225D39A68B2F5805F04BF18690028AA
:1026800003D10FF215448C610BE00FF231328A61F5
:10269000186930B100F03CF842F4807200F034F870
:1026A000F8D1196801F1080454E8001F186800F116
:1026B000080241F08051FFF76AFDF2D1002070BDA1
:1026C0009868B0F5805F04BF186900280CD10FF23C
:1026D00005228A61186850E8002F014642F0200266
:1026E00000F012F8F6D1E9E70FF299128A61186941
:1026F0000028EFD000F00CF842F4907200F004F8DB
:10270000F8D1DBE722F4F07241E80020002870479E
:102710001A6852E8002F19687047016851E8003FB5
:102720000A4623F0C00342E800310029F5D10368CE
:1027300003F1080252E8002F083322F4000243E8B4
:1027400000210029F3D12021C0F88810704710B56E
:1027500000F01EF8FCD1026802F1080151E8004FB8
:10276000084908320C4042E800410029F3D1C26E0A
:1027700000F018F82021C0F88C100022C2664267D1
:1027800010BD0000FEFFFFEF01000010200100045B
:10279000016851E8003F0A4623F4907342E8003193
:1027A00000297047012A09D1016851E8003F0A4613
:1027B00023F0100342E800310029F5D170470146AB
:1027C0000B68886A19688A060FD40021A0F8561091
:1027D000036803F1080252E8002F083322F0800258
:1027E00043E800210029F3D141E000F072BD806A86
:1027F00001F0AAB9F8B5846A04F1880504F1560716
:1028000000F01CF806D5212804D10020388020468D
:10281000FFF783FF22689168480606D5222E04D16F
:10282000002038812046FFF792FFA86840F0100092
:10283000A8602046BDE8F24000F016BD28686E682A
:1028400021688A6811067047806A00F156010023EA
:102850000B8100220A8000F007BD036853E8003FA7
:10286000026823F0800342E800310029F5D10168B5
:1028700051E8003F0A4643F0400342E80031002996
:10288000F5D1704710B500F048F81BD14B6A91881C
:10289000846D0B402370816D4B1C00F044F813D104
:1028A00000F048F800F05DF80BD10023136100F050
:1028B00071F8FCD10168CB69DC0644BF10230B62C0
:1028C00072E076E000F001F810BD886940F0080081
:1028D0008861704710B500F020F81BD14B6A9188D1
:1028E000846D0B402380816D8B1C00F01CF813D18C
:1028F00000F020F800F035F80BD10023136100F050
:1029000049F8FCD10168CB69DC0644BF10230B6297
:102910004AE04EE0FFF7D9FF10BD00F15C0201680C
:10292000136B222B7047836551884B1E538051884F
:1029300000297047046854E8004F036824F4907439
:1029400043E800410029F5D1046804F1080353E885
:10295000003F5B0808345B0044E800310029F3D1F4
:102960007047202313639161002353614649036834
:102970008B420CD05B68190209D5036853E8003F0D
:10298000046823F0806344E800310029F5D111691F
:1029900001297047016851E8003F0C4623F01003FD
:1029A00044E80031002970471188BDE8104000F06C
:1029B0005CBCBDE8104000F082BC00002DE9F8438B
:1029C00000F00CF94BD1B88988B9788800284AD032
:1029D000B989884247DA00F0CBF8FCD19C48B8614D
:1029E00000F0DCF8FCD13EE0204600F068FCB106C7
:1029F000EBD500F0E5F80170A16D4A1C00F0AFF8CE
:102A000017D0F10748BF5FEAC95200F09FF803D51D
:102A1000EA0701D500F0DAF8700703D5EA0701D517
:102A200000F0C6F8786B20B1204600F01DFC0020B5
:102A3000786378880028DAD100F0A6F8FCD100F09D
:102A400014F8FCD100F0E8F8CED100F0D5F844BF7E
:102A5000102101623988204600F007FCC7E7816930
:102A600041F008018161BDE8F183216801F10800AE
:102A700050E8003F77480831034041E80030002823
:102A800070470000F369FFCF00800040FFF4FF11A2
:102A900000380140880000582DE9F84300F09EF806
:102AA0004BD1B88988B9788800284AD0B98988423A
:102AB00047DA00F05DF8FCD16748B86100F06EF8C5
:102AC000FCD13EE0204600F0FAFBB106EBD500F069
:102AD00077F80180A16D8A1C00F041F817D0F1074A
:102AE00048BF5FEAC95200F031F803D5EA0701D5C3
:102AF00000F06CF8700703D5EA0701D500F058F82C
:102B0000786B20B1204600F0AFFB00207863788816
:102B10000028DAD100F038F8FCD1FFF7A6FFFCD18D
:102B200000F07AF8CED100F067F844BF10210162BE
:102B30003988204600F099FBC7E7816941F0080118
:102B40008161BDE8F18300000024F40005D5012176
:102B50000162786B40F001007863B0077047A265AE
:102B60007888411E79802068C66916F0070F704783
:102B7000226802F1080353E8001F083221F0805157
:102B800042E8001000287047226852E8002F2168B0
:102B900022F4807241E8002000287047226852E841
:102BA000002F216842F0200241E8002000287047F1
:102BB000216804200862786B40F002007863704757
:102BC0002068416AA06D08EA01017047206802216F
:102BD0000162796B41F0040179637047044604F1A6
:102BE0005C072068B7F80480C6690146D1F80090F8
:102BF0008568396B2229704700213961206850E8C7
:102C0000002F014622F0100241E800200028F5D1F3
:102C10002068C169CA06704720213963B861002164
:102C200079610E48216881420CD049680A0209D5B1
:102C3000206850E8001F024621F0806142E8001041
:102C40000028F5D1386901287047000000FD0F0009
:102C500085280008FEFFFFEFD5280008008000400F
:102C60008A4A00E08A4A81B0116801431160126803
:102C700010400090009801B0704780B54FF40020DC
:102C8000FFF7F0FF002200212E2000F076FFBDE8C4
:102C900002402E2000F090BF02687E498A4200D098
:102CA000704780B54FF48010FFF7DCFF0022002151
:102CB0002C2000F062FF2C2000F07EFF002200217B
:102CC0002D2000F05AFFBDE802402D2000F074BF17
:102CD00038B59EB004461421684600F0C1FF50216B
:102CE0000AA800F0BDFF20686B496C4D884252D1A4
:102CF00002200A90002111910AA800F0CCFF08B12F
:102D000001F024FA296841F0010129602868644D26
:102D100000F00100059005980120FFF7A1FF0021B8
:102D20000222029101920C200821009003220491BA
:102D3000039269464FF0904001F00AFA10201121E9
:102D4000A86069608020574A286100212A60E960F4
:102D50006961A961E9612962284600F0B1F808B10A
:102D600001F0F4F94FF088500121069000220991FA
:102D70000792ADF8202006A9284601F0C9FA08B14B
:102D800001F0E4F9E567AC6200220021252000F0A3
:102D9000F4FE252043E04449884242D101200A90B4
:102DA000002110910AA800F076FF08B101F0CEF9D9
:102DB000686840F48040686068683C4D00F480407A
:102DC000059005980220FFF74BFF02210191012297
:102DD0000292C020032100900391072204926946C9
:102DE000334801F0B5F9334828600F2169600020AD
:102DF0001022E86080216861A861E8612862AA6009
:102E00002961284600F05CF808B101F09FF9E567F8
:102E1000AC6200220021242000F0AFFE242000F04C
:102E2000CBFE1FB030BD18B595B00446502101A8A7
:102E300000F016FF226820498A4224D14FF4006036
:102E400001904FF48071119101A800F024FF08B1A6
:102E500001F07CF91948826B42F40042826300223F
:102E6000016841F4806101600021006800F4806025
:102E700000900098032000F080FE032000F09CFEEC
:102E8000204601F005FB16B010BD00004C000058B4
:102E900050000058000C0058008000405C000058B2
:102EA0006C1500204400024000380140CC15002081
:102EB0000004004844040240002800405800005824
:102EC00038B5040001D1012032BD2168DFF870332C
:102ED000994204F1240500F03FF80221697020684E
:102EE0000268A068E16823686FF30E12024320694C
:102EF0000A4361690243A0690A43E1690243206A07
:102F00000A4302431A60204600F06EF9A068B0F54B
:102F1000804F04BF002161602179686A01F03F01A0
:102F20000160A86AE96A4160606858B1052809D261
:102F3000204600F074F9296B00200860696BA86BCB
:102F4000486003E000222A636A63AA630020A86144
:102F500001216970287032BD0BD2DFF8E8024118F8
:102F60001422B1FBF2F29200DFF8DC122A62E9616E
:102F70007047DFF8D80241181422B1FBF2F1890042
:102F8000DFF8CC022962E8617047F8B5064606F121
:102F9000240500242878012801D10220F2BD012057
:102FA00028706F78012F31D1022068700027AF613F
:102FB00037683868400840003860304600F0F8F85C
:102FC0003168E86820B10A6842F00E020A6008E041
:102FD000086820F0040008603068016841F00A01C8
:102FE0000160686A0168CA0303D5016841F4807111
:102FF0000160286B20B10146086840F480700860C9
:103000003168086840F00100086001E02C7002247B
:103010002046F2BD40B100F124014A78022A05D0D1
:1030200004238B61002008700120704703681A6830
:1030300022F00E021A604B6A1A6822F480721A603B
:10304000006803685B085B000360012091F8203092
:10305000CA6903F01C03984050608A6AC86A5060CD
:10306000086B30B1026822F480720260486B8A6B90
:10307000426001224A7000200870704738B500F1A4
:10308000240200245178022903D0042090610124F5
:1030900028E001680B6823F00E030B6003681968D1
:1030A000490849001960516A0B6823F480730B606A
:1030B000012192F82050D36905F01C05A940596000
:1030C000936AD16A5960116B31B10B6823F4807334
:1030D0000B60516B936B4B600123537014705169FB
:1030E00001B18847204632BDF8B500F1240104261D
:1030F000CA69126803681C6891F8205005F01C0525
:1031000006FA05F73A4215D0670713D51A689406F0
:1031100003D41A6822F004021A6091F82030CA69B8
:1031200003F01C039E405660C96800293ED0BDE8EC
:10313000F4400847022606FA05F73A4218D0A707D6
:1031400016D51C68A20605D41C6824F00A041C606D
:1031500001224A7091F82020CB6902F01C029640AF
:103160005E6000220A70896801B3BDE8F440084738
:10317000082606FA05F52A4218D0220716D51C683B
:1031800024F00E041C60012291F82040CB6904F069
:103190001C04A2405A6001248C6101224A70002361
:1031A0000B70096911B1BDE8F4400847F1BD00009A
:1031B00070B5C56C046D6C60446D14B1856DC46DE3
:1031C0006C60012490F84460056C06F01C06B44065
:1031D0006C60046863608068102802D1A260E160BE
:1031E00070BDA160E26070BD10B5426C0168144C06
:1031F0009208A14234BF174B174B03EB820201F038
:10320000FF01826408391424B1FBF4F1012201F0BA
:103210001F01124BC36402FA01F1016510BD02796E
:103220000F49104B836502F03F0201EB82014165BB
:10323000521E012102F003029140C1657047000057
:1032400008040240F8FFFDBF00000240F8FBFDBF8C
:1032500000040240000802401C08024080080240AE
:10326000FC08024040090240704770477047000068
:10327000002800D0704710B51B4C00F004F8BDE8E2
:103280001040FEF7ABBD1A4823601A4B036070472D
:1032900038B5002488B9154D15482B60154B0360CF
:1032A000FEF7AFFD012805D007D3032804D038BFAF
:1032B000022402E0012400E00324204632BD01681C
:1032C0000C48814204D1084A1068002818BF004702
:1032D000704701680748814204D1044A10680028F9
:1032E00018BF00477047000094170020981700206F
:1032F000E412002000380140704770474FF0B040A2
:10330000006800F0F000B02888BFB0207047DFF8F8
:10331000B4070068000100F0F00070472DE9F041AB
:10332000040047D0217888064FF0B04530D5A86812
:10333000E96810F00C0001F0030103D00C2808BF6D
:10334000012939D1E069002834D0FFF7D7FF0146C1
:10335000606A814206D200F069FB00282AD100F0A1
:1033600013FA0AE02A6822F0F0021043286000F005
:1033700011FA606A00F05AFBE0B900F02FFBDFF8A9
:1033800048170860DFF84407006801F09BF888B927
:103390002178C8075ED5A968E86801F00C01082902
:1033A00000F0030003D00C2908BF03282AD160686D
:1033B00000284FD10120E5E1E06998B1296841F08A
:1033C0000101296000F0BAFB06462868800706D490
:1033D00000F0B4FB801B0328F7D30320D2E100F0F8
:1033E000D3F9D5E728684008400000F08DFB064679
:1033F00028684008C007CBD500F0A0FB801B03283D
:10340000F6D3EAE76168B1F5803F04D1286840F45B
:103410008030286003E0296821F4803129606068E9
:1034200058B100F08BFB06462868800312D400F0E8
:1034300085FB801B6528F7D3CFE700F07FFB0646AE
:103440002868400CC00705D500F078FB801B652874
:10345000F6D3C2E72078810715D5A968E86801F09E
:103460000C01042900F0030003D00C2908BF022836
:1034700025D1E06800289DD06968206921F0FE41CF
:1034800041EA006169602168DFF8446611F0180FB5
:1034900000F08A806069002875D0C806706858D529
:1034A00081072ED4706800F07DF9074670688007A8
:1034B00027D400F043FBC01B0328F7D38DE7E06857
:1034C00078B1296841F48071296000F037FB064625
:1034D00028684005D0D400F031FB801B0328F7D3C7
:1034E0007BE7286820F4807000F00EFB0646286811
:1034F000800AC007C7D500F021FB801B0328F6D344
:103500006BE7706840F00400706000F017FB07463E
:103510007068000705D400F011FBC01B0428F7D326
:103520005BE77168A06921F4706141EA0021716074
:10353000706840084000706000F000FB074670684B
:103540004008C00730D500F0F9FAC01B0328F6D3B5
:1035500043E700F027F907467068800705D400F0BC
:10356000EDFAC01B0328F7D337E7706820F004009A
:1035700070607068C008C00716D500F0DFFAC01B85
:103580000428F6D329E7706820F00400706000F08A
:10359000D5FA07467068C008C007C9D500F0CEFA52
:1035A000C01B0428F6D318E72078410746D5DFF87A
:1035B00024753868C1050ED400F0A6FF00F0BEFAED
:1035C00080463968C80506D400F0B8FAA0EB0800B8
:1035D0000328F6D301E7A068012805D00528316843
:1035E00006D141F004013160306840F0010005E08F
:1035F000490849003160306820F00400306041F231
:103600008937A06860B100F099FA80463068800779
:1036100014D400F093FAA0EB0800B842F6D3DCE62D
:1036200000F08CFA804630684008C00706D500F0EC
:1036300085FAA0EB0800B842F5D3CEE62078410623
:1036400022D5A06A0028B0680ED040F00100B0601A
:1036500000F074FA0746B068800715D400F06EFADF
:10366000C01B0328F7D3B8E640084000B06000F064
:1036700065FA0746B0684008C00705D500F05EFA55
:10368000C01B0328F6D3A8E6E06A002879D0A96811
:10369000EA68022801F00C015CD1206B02F0030300
:1036A000834202BF02F07003606B834213D1A06BB0
:1036B000C2F30623834202BF02F47813E06B834215
:1036C00009D1206C02F06063834202BF02F06042C5
:1036D000606C82423AD00C293DD0286841013FF508
:1036E00069AE286820F0807000F00EFA064629685E
:1036F000880105D500F022FA801B0328F7D36CE679
:10370000EA68DFF8D403216B0240606B0A43A16BC7
:103710000243E06B42EA0122216C0243606C0A43DF
:103720000243EA60296841F080712960E86840F04E
:103730008050E86000F002FA04462868810120D435
:1037400000F0FCF9001B0328F7D346E6296888013E
:1037500017D4E7E70C293FF42DAE286820F08070DD
:1037600000F0D2F904462968880105D500F0E6F991
:10377000001B0328F7D330E6E968DFF86003014057
:10378000E9600020BDE8F0812968606A21F0F0015D
:10379000014329606968206A21F47F4141EA0021E0
:1037A0006960704740F00100706000F0C7B92DE912
:1037B000F8430400884600F0B480DFF824532968F9
:1037C00001F0070141450ED200F09AF9074628683A
:1037D00000F00700404506D000F0B0F9C01B0228F9
:1037E000F5D90320BCE0217888074FF0B04711D508
:1037F000B968A06821F0F0010143B96000F09EF9BA
:103800000646B868C00305D400F098F9801B02286A
:10381000F7D9E6E72178DFF8AC62880612D531687F
:10382000606921F0F0010143316000F087F98146C1
:103830003068800306D400F081F9A0EB090002286B
:10384000F6D9CEE72078410613D53068A169000982
:10385000000140EA1110306000F070F981463068D4
:10386000C00306D400F06AF9A0EB09000228F6D9DB
:10387000B7E72078420711D5B968E06821F4E06124
:103880000143B96000F05AF90646B868800305D4D0
:1038900000F054F9801B0228F7D9A2E7207801072D
:1038A00012D5B868216920F4605040EAC100B860C0
:1038B00000F044F90646B868400305D400F03EF92C
:1038C000801B0228F7D98CE72078C1072BD56068C8
:1038D000022819D139688A0323D5B968890840EAD2
:1038E0008100B86000F02AF90646B968606801F006
:1038F0000C01B1EB800F16D000F020F9801B41F2D3
:1039000089318842F1D36CE7032802D139688901F3
:1039100003E00028396802D18907DED401E04905B7
:10392000DBD401201CE0296801F0070188450DD295
:1039300000F0E6F80446286800F00700404505D08E
:1039400000F0FCF8001B0228F5D94AE700F046F821
:103950005D49086000F0F4FDBDE8F24300F0B2BD3F
:10396000BDE8F28338B54FF0B0455F4CA96811F05F
:103970000C0106D1FFF7C2FCC0F3031054F820007D
:1039800032BD0429594828D00829594A04D1296848
:10399000C90222D4104632BDE96801F003010229B0
:1039A0000CD0032904D12968C90207D4104605E0C8
:1039B000FFF7A4FCC0F3031054F82000E968EA689C
:1039C000EB68C1F306214843C2F30211491C5B0FA7
:1039D000B0FBF1F05B1CB0FBF3F032BD80B5FFF73C
:1039E000C1FF404AFFE743491268C2F3031251F88E
:1039F0002210B0FBF1F002BD80B5FFF7EFFF00F041
:103A000010F8C2F3022206E080B5FFF7E7FF00F0EE
:103A100008F8C2F3C22211F8221001F01F01C840B9
:103A200002BD304A344912687047000070B52E4913
:103A3000B1282EBFCD6AC0F3031051F82050FFF714
:103A400066FC044600F094FD2A49C4F3031251F8C1
:103A500022202A49B5FBF2F25FF00004B2FBF1F13B
:103A6000B0F5007F31A225461FD100BF28A050F835
:103A700025308B4216D26D1C032DF8D9184D2868BD
:103A8000C00844EAC00000F03FF80646286800F08D
:103A90000700A04213D000F051F8801B0328F5D393
:103AA000032070BD52F82540E8E700BF1CA050F885
:103AB00025308B42F6D26D1C032DF8D3DEE70020B3
:103AC00070BD000008010058781000205C10002034
:103AD00090000058000400588C80C111FCFFFEEEDD
:103AE0000040005808000058148D00080024F4001D
:103AF0000048E801D48C00081490000840420F00F0
:103B00002868C00848EAC000286000F017B8000024
:103B100012000000240000003600000040000000F9
:103B2000060000000C000000100000000000000073
:103B3000010000000200000003000000014840688E
:103B4000704700BF54100020704700000A010100B8
:103B500002D43A4B5A547047394801F00F010144DE
:103B600001F8042C704737490A6860F30A2240F2D2
:103B7000FA5060F31F420A60704770B5314C2368F9
:103B8000C3F302230124C3F10705052D2FBF0F2620
:103B9000C3F1070604FA06F6761E1D1D072D34BF75
:103BA0000023DB1E3140994004FA03F3BDE8704066
:103BB0005B1E1A401143C9E7010007D4012200F03F
:103BC0001F01214B8A40400943F820207047010023
:103BD0000BD4012200F01F011C4B8A40400943F81E
:103BE0002020BFF34F8FBFF36F8F7047401EB0F19F
:103BF000807F01D30120704715494860F0221548A5
:103C0000027000238B6007220A60002070470100C9
:103C100007D4012200F01F010F4B8A40400943F8EE
:103C200020207047010007D4012200F01F010B4B38
:103C30008A40400943F820207047000000E400E07B
:103C400018ED00E00CED00E000E100E080E100E0B4
:103C500010E000E023ED00E000E200E080E200E0A0
:103C6000002200F08DBC0000DFF81833196802094B
:103C700002F47F220001914300F47F200843186082
:103C80007047DFF800331A68010C22EA014242EA69
:103C900000421A6070472DE9F8430746002438783F
:103CA000DFF8E0524206A0464FF0B04643D5396BEC
:103CB00071B1B1F5800F06D0B1F5000F18BFB1F5A5
:103CC000400F2ED035E0F06840F48030F06029E0FD
:103CD000306820F080603060FFF730FF8146306848
:103CE000C00EC00707D5FFF729FFA0EB0900022887
:103CF000F5D9032415E000F033F9B86821F4781100
:103D000000F037F981463068000106D4FFF716FF4E
:103D1000A0EB09000228F6D9EBE731697869014385
:103D200031613CB92968386B21F4400101432960B5
:103D300001E00124A0463968080532D5D5F808808D
:103D4000386C08F4407880452AD000F0DDFBB8F1EB
:103D5000000FA96805D1386C21F440710143A960B6
:103D60001EE0A86840F48030A86021F44071A86883
:103D700020F48030A860386C0143A960A868C007AF
:103D80000ED5FFF7DBFE8046A868800708D4FFF752
:103D9000D5FEA0EB080041F289318842F4D3032418
:103DA000A0463878C20705D52968B869890840EA6D
:103DB000810129603978880705D52968F86921F4D7
:103DC0004061014329603978C80644BFB86AFFF7EB
:103DD00058FF3978880644BFF86AFFF752FF3978F0
:103DE000480744BF386AFFF73FFF3878010744BFF0
:103DF000786AFFF739FF3968C80535D52968786BC7
:103E000021F0406101432960796BB1F1006F00F04E
:103E1000A1F8786BB0F1806F26D1316821F0806114
:103E200000F0ACF804463168C90EC80707D5FFF7A3
:103E300085FE001B0228F6D94FF0030814E000F0BD
:103E40008FF8F86821F0606100F093F8044631685B
:103E5000080105D4FFF772FE001B0228F7D9EBE733
:103E60003169786901433161396888051BD5B86BC0
:103E7000B0F1804F18BFB0F1004F00D018B92968D9
:103E800021F0404108E02A6822F040422A6020F0F8
:103E90008050296821F0406108432860B86BB0F178
:103EA000C05F00F057F83868420538D52968F86BCC
:103EB00021F0405101432960F96BB1F1005F03D15A
:103EC000F06840F48030F060F86BB0F1805F26D18C
:103ED000316821F0806100F051F804463168C90E64
:103EE000C80707D5FFF72AFE001B0228F6D94FF0B6
:103EF000030814E000F034F8386921F0604100F064
:103F000038F804463168080105D4FFF717FE001B96
:103F10000228F7D9EBE731697869014331613968E3
:103F2000C80405D5E968786C21F440410143E96093
:103F3000396888040BD5716AF86C21F030010143AF
:103F40007162716AB86C890840EA81017162404609
:103F5000BDE8F28303D1F06840F08070F0607047F4
:103F60003169786821F4FE4141EA0021316131690B
:103F7000704701433161316841F080613160FFF782
:103F8000DDBD000088000058674A00E0674A81B044
:103F9000116801431160126810400090009801B050
:103FA000704710B500F0B8FA00F004FB00F046F8D6
:103FB00000F080F85E4C5F48606204F1240000F07D
:103FC00087FD0420FFF7E2FF0120FFF7DFFF02205B
:103FD000FFF7DCFF0420FFF7D7FF0220FFF7D4FF35
:103FE0000120FFF7D1FF00220F210E20FFF7C5FDB2
:103FF0000E20FFF7E1FD00220F213A20FFF7BDFD63
:104000003A20FFF7D9FD002060600F21A16047F63C
:10401000FF70494AE060002122602161A161E161F5
:104020006161204600F08CFD00220021204600F056
:10403000A2F900F007FB00F045FCFCE780B59AB060
:10404000482108A8FFF70CFE1C2101A8FFF708FE75
:1040500000F05AFA39493A4A086820F01800086016
:104060000120116860F34A2111604FF48031126819
:1040700002F4C06200920722009B099108924FF45B
:1040800080710B910A90402200210C92139108A894
:10409000FFF744F96F22019202210291002203925C
:1040A0000492059206920792012101A8FFF77FFB77
:1040B0001BB000BD80B594B050216846FFF7D0FD1D
:1040C0004FF440524FF4804100921191022210218E
:1040D000129213916846FFF7DEFD15B000BD4FF454
:1040E000E13110B5174C184A616000200C21616164
:1040F000A060E0602061A0614FF400412062606236
:10410000A0622260E1612046FDF724FE00212046E6
:1041100000F0DFFD0021204600F0E6FD2046BDE86E
:10412000104000F0B9BD0000480000584C00005895
:104130000C150020000C005800280040900000588A
:1041400000040058E41200200038014070470000CD
:104150002DE9F04F0024DFF89891664D4FF00F08DD
:1041600002460B4631E0644FBA4214BF4FF0070ECF
:104170004FF0040E0EFA01F141EA060E5F4941F8D4
:104180002CE0C74329685E683940F60248BF014306
:10419000296069685E683940B60248BF01436960BA
:1041A000D9F800105E683940F60348BF0143C9F8EA
:1041B0000010D9F8041007EA010C5968890348BFB8
:1041C00040EA0C0CC9F804C0641C186830FA04F109
:1041D00000F07D800121A1400840F5D04FEA440C59
:1041E000032606FA0CF65F686FEA060E07F0030670
:1041F000012E1CBF07F00307022F10D19668DF685D
:104200000EEA060607FA0CF73E439660566826EA61
:1042100001015E68C6F30016A64031435160A1005B
:104220001E7906F00306032E1ED0D7689E680EEA9C
:10423000070706FA0CF63743D7601F7907F0030724
:10424000022F11D1E60802EB860601F01C07D6F812
:1042500020B008FA07FA2BEA0A0BD3F810A00AFAE2
:1042600007F747EA0B07376216680EEA06071E795A
:1042700006F0030606FA0CF646EA070CC2F800C080
:104280005E6816F4403F9FD01C4E4FEA940C56F8DF
:104290002C6001F00C0108FA01F7BE43B2F1904F17
:1042A00008BF4FF0000E11D0154FBA4208BF4FF0B3
:1042B000010E0BD0134FBA4208BF4FF0020E05D0CB
:1042C000114FBA427FF44FAF4FF0030E52E7BDE8F3
:1042D000F08F0AB181617047816270470B490A68AB
:1042E00003461A421CBF0B6000F0FEBA7047000084
:1042F00080080058000800580010004808000140DD
:104300000004004800080048000C00480C08005851
:1043100070B500F124035A78012A1DD118780128BC
:1043200001D1022070BD5C6A0120187025680B481D
:104330000A68CE6805401543761E48680A7A45EA41
:10434000C6450543487A45EA024545EA40252560C9
:1043500000211970002070BD012070BDFFFD00E03C
:104360009160FF2201684A6280F82130002180F8C4
:104370002010002070472DE9F84300F056F808BFE0
:1043800002204AD000F058F80CD5FFF7D7FB0746BB
:104390002068C168480705D5FFF7D0FBC01B48451A
:1043A000F6D314E02068816821F480618160206880
:1043B00000F062F8C160FFF7C1FB07462068C268E1
:1043C000510709D4FFF7BAFBC01B4845F6D3206854
:1043D000456200F044F820E0C0F814802168886845
:1043E000C008C000886021688868064320488E6045
:1043F000016841F4002101601E48026842F4002275
:10440000026001222068816841F48041816000F0EF
:1044100006F800F037F884F82000BDE8F283216840
:10442000886840F48060886070470446884694F845
:104430002000164601287047012084F82000022140
:1044400084F82110CA2022685062532120684162FA
:10445000FF2520688168480540F2E939704703214B
:1044600084F82110002084F8200003207047000009
:104470008008005800080058C16801F0800161F40C
:1044800090617047002021684D6284F821207047B8
:1044900090F82010012901D102207047012180F8F5
:1044A0002010022280F82120CA2103685962532279
:1044B00001684A6201230268916841F02001FFF718
:1044C0004FBF000070B50F4E044630780025A8B1EC
:1044D000FFF784FA31784FF47A72B2FBF1F1B0FB56
:1044E000F1F0FFF783FB48B9102C07D200222146D8
:1044F0004FF0FF30FFF741FBB46000E00125284694
:1045000070BD00BF541000200249086840F480705C
:104510000860704700040058124810B5016841F463
:10452000807101600320FFF71EFB0020FFF7CAFF28
:104530000024002814BF0124FEF79FFB204610BD75
:10454000094880687047084800787047074908683C
:1045500040F00100086070470449086840F002001C
:10456000086070470040005854100020042004E008
:10457000DFF80800006800F4C060704700040058CD
:1045800000B500BF130096469446103928BFA0E836
:104590000C50FAD85FEA417C28BF0CC048BF40F8F5
:1045A000042BC90728BF20F8022B48BF00F8012BB5
:1045B00000BD00001CB5DFF8F403DFF8F4434FF44E
:1045C00000410160606C40010ED5606CC0000BD4EE
:1045D000FFF79AFFFFF798FF206C40F480302064CB
:1045E000206C20F4803020643F22216841F4801147
:1045F00021603F21206800F4801000900098DFF8CF
:10460000B40342604161026842F47C1202600169B5
:1046100041F47C110161026842F03F0202600169CD
:1046200041F03F010161002000F0B0FB48B180790A
:10463000DFF88423E264E16C21F47C5141EA00213B
:10464000E16413BD10B5DFF87413DFF8744388B06C
:10465000086840F050000860CA22DFF86803C261B1
:104660005321C161FF210268D208D2000260C161FA
:10467000DFF85413086840F40040086000F09AFB2B
:10468000DFF848231168042060F302011160002064
:10469000DFF83C1300F0CCFC00F085FE0121012086
:1046A00000F08DFB002000F02DFF012000F02AFF1C
:1046B000022000F027FF012000F044FF012100202C
:1046C00000F05AFF0121012000F056FF01210220D5
:1046D00000F052FF0FF22D23BE4901220020FEF709
:1046E000C7FD00F0A3FFBC4A00214FF4807001F029
:1046F000FEF804F23C500FF235010090019169463A
:104700000FF22D0001F076F904F5C961039104F26E
:104710005470029040F23C510591049402A801F0BB
:104720000DF800F081FF08B010BD000070470000D8
:1047300070B5064688B07068A84C00F10B054FF4C0
:1047400012412A88521A11D0521E6DD0521E00F00A
:104750007F80921E00F08980521E00F08B80521ED6
:1047600000F08B80521E00F08F8091E0684601F0CF
:1047700004FA9DF802309DF801209DF800102046B3
:1047800001F03CFA9DF804100FF26C2001F036FAAB
:104790009DF80C309DF80B209DF80A109DA001F0AB
:1047A0002DFA00BFA1A001F029FA04AD00200021DC
:1047B0000022002385E80F0070680D30007838BBB8
:1047C000A2A0874E01F01AFA00F06AFE0F207F21A6
:1047D0008DF810008DF8121004F5097035682D0C55
:1047E000294601F00BFAADF81C5034689EA0C4F3C2
:1047F0000B04214601F002FAADF81E4004A801F0B6
:10480000B5F901F00FFA0021012000F0D8FA3FE0DD
:10481000012806D104F5127001F0F0F90020307083
:1048200036E004F51F7031E004F1240001F0E6F9F0
:10483000706800F10D0504F5C070297801F0DEF90B
:104840002878002814BF04F5F67004F5D8701DE030
:1048500004F1480001F0D2F9D5F80620D5F802108D
:1048600004F1980001F0CAF912E0D5F8021004F141
:10487000C00006E004F1FC0008E0D5F8021004F5E1
:10488000907001F0BBF903E004F5AE7001F0B6F9E9
:1048900008B070BD38B50446FFF750F914F1010FA8
:1048A000054609D0FFF74FFE241805E04D4908687A
:1048B00020F00400086030BFFFF740F9401BA04221
:1048C000F4D331BD01E0704700BF4FF0FF3000F07E
:1048D0009BBF00214FF4807001F016B8022001F058
:1048E00035B8022001F03AB8012805D0022805D0D9
:1048F000102805D101F029BC01F036BC01F036BC0E
:1049000070470000F8B5384C324E04F580752F889A
:10491000B7F5807F3BD231780D2935D14FEA0401BC
:1049200059A001F06BF91EA1204601F0F7FC04F537
:10493000827720B958A001F061F92C4814E019A140
:10494000204601F0EBFC28B955A001F057F94FF0D3
:10495000B05009E014A1204601F0E0FC48B900BFC6
:1049600051A001F04BF922486860384601F0E0FCA4
:1049700003E021464EA001F041F94FF4807120463A
:10498000FFF76EF9002701E0E1557F1C2F803146CB
:1049900001B0BDE8F040174B01220020FEF768BCD3
:1049A00053573100535732005357330010400058CB
:1049B00050000058040C0058FECAFECA9008005867
:1049C0003C000320082800400800005880040058DC
:1049D0000C15002060170020375A0008D883000803
:1049E000002004E010ED00E0441100200400001657
:1049F0000100001605490008576972656C657373FC
:104A0000204669726D77617265206275696C6420F9
:104A100025640A004655532076657273696F6E20CF
:104A200025642E25642E25640A0000003E3E3D3D8F
:104A300020534843495F5355425F4556545F434FA7
:104A400044455F52454144590A0D00003E3E3D3DFC
:104A500020574952454C4553535F46575F52554E78
:104A60004E494E47200A00003E3E3D3D204442470D
:104A70004D43555F47657444657669636549443DB8
:104A800020256C78200A0D0072656365697665647F
:104A90002025730A00000000535731204F4B0A00B5
:104AA000535732204F4B0A00535733204F4B0A00C5
:104AB0004E4F54205245434F474E495A4544204398
:104AC0004F4D4D414E44203A2025730A000000000E
:104AD000F8B504460025ACB104F13406307910B9BC
:104AE0002046FEF7D9F80F4F384600F021F8386815
:104AF00040F001103860204600F007F835600120D2
:104B0000307100E001252846F2BD10B500240649A9
:104B1000064A00EB8403641C062C5A60D961F8D362
:104B200010BD0000000C0058A31500087F150008F8
:104B3000002303604FF03F1242603F2181607047C5
:104B400038B504004DD094F8210028B9002184F82C
:104B500020102046FEF767F90221DFF8CC0084F828
:104B600021100268D10640D42268CA205062532125
:104B7000206800F03FF8FF2510B100F03FF830E06A
:104B80002268DFF8A80091680140916023689A6864
:104B9000606821690243A0690A4302439A60206861
:104BA000E168016122681069A16840EA0140106172
:104BB00000F02AF8C86C80088000C8642368DA6CAA
:104BC000E069616902430A43DA64226890688106F9
:104BD00009D400F020F830B120684562042100F0CB
:104BE0001CF8012032BD20684562012184F82110A3
:104BF000002032BD4162204600F033B82068456293
:104C0000042184F8211070472168C86820F08000D2
:104C1000C8602168704720460AE084F8211000200F
:104C200084F82000704700000C280040BFFF8FFF71
:104C300038B504462168C86820F0A000C860FEF7B7
:104C40007DFF05462068C168880608D4FEF776FF18
:104C5000401B40F2E9318842F4D3032032BD0020EA
:104C600032BD38B504462068C1684A0612D44FF0F8
:104C7000FF31C160FEF762FF05462068C168480643
:104C800008D4FEF75BFF401B40F2E9318842F4D3C1
:104C9000032032BD002032BD10B500F184010A7836
:104CA000012A01D1022010BD01230B7024224A6089
:104CB0000468226823685B085B0023600024446664
:104CC00022F000520068026020234B600C7000202C
:104CD00010BD70B500F01FF801D1022070BD00F0CA
:104CE00020F820F0604009E070B500F014F801D120
:104CF000022070BD00F015F820F060600143916063
:104D0000204600F01BF82068066020226A6000211F
:104D10002970002070BD044604F18405287801281C
:104D2000704701222A702420686022681668106883
:104D300040084000106022689068704730B5416EAE
:104D400011B90124012114E0026800BF0BA391688E
:104D5000D2F808500BA2490E01F007016D0F5C5DFF
:104D60005B5C555D515CE400DB0094FBF5F493FB68
:104D7000F1F168304480018030BD00000101010381
:104D800007010000080402040801010120B50146E2
:104D90000648074D00E00838C2798A4218BFA84289
:104DA000F9D18A4218BF002020BD00BFF873FF1F51
:104DB0000070FF1F0D48002202604260704710B56E
:104DC00000F007F8536800F009F8536084F3108886
:104DD00010BDEFF3108472B6044A704719B101296F
:104DE00002D10343704783437047000068170020D7
:104DF000DFF87425116889B200E00146106880B2BE
:104E00008142FAD17047F0B5DFF86045DFF86055B0
:104E10002678182203465343B0422B4404D122780B
:104E20006270587D207010E093F814C0587D5F7D4B
:104E300005F1150612FB0CFC062806F80C7004D0D0
:104E40001E7D143512FB00F2AE5401201873227837
:104E5000062A02BF00294FF0FF30E060F0BD10B518
:104E6000DFF80845E06810F1010F0ED0FFF7C0FF32
:104E7000E16881422FBFE268E168E2888A182179FF
:104E8000101AE2784843D04000E0002080B210BD04
:104E90002DE9F84FDFF8DCA4DFF8DCB4DAF80050D5
:104EA000DBF80000410502D5E8684107FCD4A8689A
:104EB000DFF8B874DFF8B89420F48060A8604FF091
:104EC00018083C7809F1080118FB04F00E58FFF7A8
:104ED000C6FF864238BF002608D339894118B1423F
:104EE00003D23E890022BA701AE0361A0121B97045
:104EF00016E009F1080309F108021959091A1151BC
:104F00000BE018FB04F409F1080C5CF80430834250
:104F1000EFD209F1080100220A5109EB04014C7D8E
:104F2000062CEED1B0B238B9FFF762FFF86003206B
:104F3000BDE8F24FFEF76BBE022802DAF8780128CE
:104F400000D0761EE8684107FCD5E86800F0EAF872
:104F5000E8604FF4002100F058F9DBF80C0066F32C
:104F60000F00CBF80C00FFF743FFF860DAF80010F1
:104F7000886840F480608860AFF30080BDE8F18FFE
:104F80002DE9F843EFF3108472B6DFF8E853DFF849
:104F9000E0732A68CA205062532151629068DFF89A
:104FA000CC1320F48060906018200E783346434381
:104FB0001F4497F80CC0BCF1020F26D1D7F800802F
:104FC000D7F810908878E8B17A7B012A0AD10121BC
:104FD0003046FFF718FF84F310887968304600F0F8
:104FE00019F904E084F31088304600F0CCF8286802
:104FF000CA2242625321416242463146484601F08C
:10500000A7F910E0FFF744FF0BE0D0684107FCD59B
:10501000D06800F087F8D0604FF40021DFF85C031F
:10502000016084F31088FF2229684A62BDE8F18399
:105030002DE9F041DFF83C432168CA234B6253223B
:105040004A624FF6FF7CDFF83023136843F02003F9
:1050500013601368956896682D0C05F07F05C6F3FC
:105060000E066D1C761C721E2F4603F0070317FBFD
:1050700002F7C3F10403A7F5A077DF40BB4A6745F9
:105080002CBFA2F808C01781D370D6801571BC4B15
:105090001E6846F400261E60BA4E356845F40025A9
:1050A000356060BB012595704FF0FF30D060002760
:1050B000AF4800F10C05002618205FFA87F810FBB6
:1050C00008F87F1C5FFA87FE05F80860BEF1060F3E
:1050D000F3DB062010708A6822F480628A60C86858
:1050E00000F020F8C8604FF40021D9600320FEF7DB
:1050F00099FD2168886840F48040886005E0C968AF
:10510000480544BF0320FEF782FD2168FF20486266
:10511000002203210320FEF730FDBDE8F04103200B
:10512000FEF74ABD00F0800060F4906070472DE902
:10513000F04104464FF0000CEFF3108572B68C4F2F
:10514000182607F10C0806FB0CFE18F80E0020B11B
:105150000CF1010CBCF1060FF5DBBCF1060F0DD014
:1051600006FB0CF63E440120307385F31088346151
:105170007273336081F800C0002002E085F310886C
:105180000120BDE8F081F8B50746EFF3108472B650
:105190000320FEF71CFD774D7B4A2E68CA21716201
:1051A00053207062394618204143535C022B23D1AF
:1051B00000213846FFF727FE6C490878062816D1EB
:1051C0006D4A1068410502D5F0684107FCD4B0680B
:1051D00020F48060B060F0684107FCD54FF40021F6
:1051E000F068FFF79FFFF06000F00FF804E04978E7
:1051F000814218BFFFF74CFE2968FF204862032058
:10520000FEF7DAFC84F31088F1BD5C4801600320EE
:10521000FEF708BD2DE9F84F82468946182451460D
:10522000534D61436E18307B022804BF5046FFF790
:10523000AAFFEFF3108772B60320FEF7C8FCDFF871
:105240003481D8F80000CA22426253214162022010
:105250003073C6F80890C6F80490DFF8109199F8FA
:105260000000062809D100F078F8062272754FF088
:10527000FF30C9F80C00002058E0FFF7F0FDB168DE
:105280000918B16005F10802B16899F8003063436C
:10529000D35899422AD399F8003004E005F1150E4D
:1052A00063431EF8033005F1150C14FB03F21CF8E0
:1052B0000220062A06D005F1080C62435CF80220A1
:1052C0009142EBD21A46624305F11501895C062929
:1052D00005D005F1140C14FB01F40CF804A0717551
:1052E000337505F1150101F802A01FE099F80010CF
:1052F00099F80030994214FB01F210D005F1140B1B
:1053000005F1150E1BF8023014FB03F40EF804A08F
:105310007175337505F1140101F802A004E005F17F
:105320001403717503F802A000F017F899F8001043
:1053300099F801208A4202D0FFF7AAFD02E0B16885
:10534000081AB060FF20D8F8001048620320FEF76A
:1053500033FC87F31088BDE8F18F99F8001089F8C5
:10536000011089F800A07047282800402817002065
:10537000781300200C150020082800400C08005865
:105380000008005880080058841300203E4A00E0BE
:105390003E4A81B0116801431160126810400090CC
:1053A000009801B07047F0B585B0FFF7CFF8FFF770
:1053B000D3F83749086840F480300860002600F0D0
:1053C000E4FF14216846FEF74BFC00250024002270
:1053D000304901EBC201887988B10F68B7F1904F6D
:1053E0000BD02D4B9F4205D02C4B9F4207D1888874
:1053F000044304E089880D4301E088880643521C79
:10540000262AE5DB012101910020032231000290D0
:10541000039211D000960120FFF7B8FF0120FFF79B
:10542000B7FF69464FF09040FEF792FE00223146EA
:105430004FF09040FEF74DFF280010D0009502205D
:10544000FFF7A4FF0220FFF7A3FF134E6946304683
:10545000FEF77EFE002229463046FEF73AFF200086
:1054600010D000940420FFF791FF0420FFF790FF75
:105470000A4D69462846FEF76BFE00222146284663
:10548000FEF727FF05B0F0BD4C0000584C01005856
:105490009008005890880008000400480008004860
:1054A00000B587B04FEA0D0009A11C22FBF736FFBB
:1054B00000F079F9684600F051FB07B000BDFEF737
:1054C0000EBE13460A4601460020FDF7E1BE00006D
:1054D00000000000000000000000000090880008AC
:1054E000280003202C00032026040400464A81B033
:1054F000116801431160126810400090009801B0DB
:105500007047000078B585B0054600F078F80220B5
:10551000FFF7ECFF3FA13D4E31F81540009401210B
:1055200001910022022102920391694656F825005A
:10553000FEF70EFE56F8250000222146FEF7C9FEB2
:1055400006B070BD10B500F00FF8BDE810400122A4
:10555000FEF7BFBE10B500F007F8BDE8104000220E
:10556000FEF7B7BE000000002AA4284B34F8101044
:1055700053F820007047000030B585B004460D4652
:1055800000F03DF8200008BF042004D0012C18BF13
:10559000022C02D10820FFF7A9FF2800DFF87020B5
:1055A0001EA10ED131F81430009300210191012386
:1055B00002210293039100F01DF80120FFF76AF920
:1055C00016E0012D14D131F81400009001234FF49E
:1055D00004110293019100F00DF800BF11A0045DC9
:1055E00000220F2160B2FEF7C8FA60B2FEF7E4FABB
:1055F00005B030BD694652F82400FEF7A9BD14215C
:105600000022684600F0FEBE4C00005860100020EA
:105610006C100020200001000200000010000100BA
:10562000020000000A06070000F065BF6C486D49E3
:10563000016001F12003436001F13002826001F159
:105640004003036201F14802426201F15003C3606A
:1056500001F15802026101F17403436101F1780222
:1056600082618431C16100F064BF38B504465E4D8B
:10567000284600F0C3FF5A494868A1680160E26803
:105680005A49C2604160856000F06FFF58482AE0C7
:1056900080B5534843681A6801211172406800F0D0
:1056A0006AFF002002BD38B5514C4F4D04E000F0B8
:1056B00041F8009821688847284600F0A2FF00289A
:1056C000F5D031BD4A494868004738B50446494DD0
:1056D000284600F093FF4249C968A06808604D6001
:1056E00000F04EFF4448216801606268426000207B
:1056F00032BD80B53A48C3681A6810211172C0687B
:1057000000F044FF002002BD35483B4AC168C36831
:1057100011681868084738B5374C364D04E000F07A
:1057200009F8009861688847284600F06AFF002859
:10573000F5D031BD6946284600F08EBF38B5044625
:105740002E4D284600F05AFF2D4800F057FF244800
:105750000069A2688260E168C16005612368036036
:1057600062684260216941616269826131BD80B5D0
:105770000146234800F05AFFBDE802400FF2050041
:1057800000F00DBF38B5164C1D4D06E0FFF7D2FFF7
:1057900000992069006900F049FF284600F031FFB8
:1057A0000028F3D031BD10B5164C204600F026FF7E
:1057B0000B4948690460BDE8104000F005BF1CB506
:1057C000104C06E06946204600F046FF009800F0C5
:1057D00051FF204600F015FF0028F3D013BD000054
:1057E00000000320B8090320580A03209C08032066
:1057F00078170020600A032080170020480A032041
:1058000070170020500A03202DE9F843664CDFF89A
:105810009C81A5692840A0614FF0FF3600F061F837
:1058200001273AE05B1C54F833C012EA0C0FF9D0A0
:1058300054F83320104004EBC3090840D9F8041091
:10584000014208BFC9F80460D9F80410084000F00C
:10585000AFF8D9F8042007FA00F18A43C9F8042008
:105860006062EFF3108172B607FA00F22069D2434A
:1058700010402061022004EBC003401E53F808CC06
:1058800002EA0C0C43F808CCF5D181F31088616A68
:1058900058F82100804700F024F8A16900EA0C0CB8
:1058A0001CEA010F05D01A4203D1002300EA0102CD
:1058B000B9E7666200F0DFFEEFF3108672B6226988
:1058C000E1696069A36902401A4202BF206A01428D
:1058D000FEF7F9FF86F3108800F0CEFEA561BDE863
:1058E000F183D4F810C0E2696069236A704738B563
:1058F0001446EFF3108572B600F05AF82B4941F8C0
:10590000204085F3108831BD30B5EFF3108272B6B8
:10591000254B1D6905431D6153F83140204343F871
:10592000310082F3108830BDEFF3108372B61E4948
:105930004A6922EA000005E0EFF3108372B61A49C3
:105940004A691043486183F310887047EFF310836E
:1059500072B61549CA691043C861F4E72DE9F041F0
:10596000114C616A06460D4611F1010F0EBF4FF052
:105970000008012000FA01F8276A266203E0314698
:105980004046FEF7A1FFE0693042F8D06562EFF3D0
:10599000108172B6E06920EA0606E66181F310889C
:1059A0002762BDE8F08100002C1000208C1400203C
:1059B000014600200A0C120404BF1020090411F053
:1059C0007F4F04BF0830090211F0704F04BF001D63
:1059D000090100BF03A2090FC0F11F00515C401A6A
:1059E000C0B270470403020201010101000000007F
:1059F000000000007FB50C464E4D61684E4E286297
:105A00006962281D00F03AFE2468746006F10800FF
:105A100000F0F4FD012000F069F8012030706968A1
:105A200041B10FF2ED030FF2F102009301920294E3
:105A3000684688477FBD1FB53F4C04F1080000F061
:105A4000E0FDF8B92078E8B1694604F1080000F0FB
:105A500003FE3848016A49B10098029001228DF88E
:105A6000042001A888479DF8040000E00120207070
:105A700018B10098FFF77BFE04E0009904F10800DC
:105A800000F0C8FD04F1080000F0BBFD28B9207843
:105A900018B104F10800FEF71CFF1FBD2DE9F0410D
:105AA00005460E4690461C46002000F01FF8224F87
:105AB0007868A0F80950C672324641460C30FBF7B0
:105AC0002DFC1C4A012010700021526900209047D3
:105AD00048F2E800FEF705FF79688A78D21C04F1E5
